{
  "_format": "hh-sol-artifact-1",
  "contractName": "Domains",
  "sourceName": "contracts/Domains.sol",
  "abi": [
    {
      "inputs": [
        {
          "internalType": "string",
          "name": "_tld",
          "type": "string"
        }
      ],
      "stateMutability": "payable",
      "type": "constructor"
    },
    {
      "anonymous": false,
      "inputs": [
        {
          "indexed": true,
          "internalType": "address",
          "name": "owner",
          "type": "address"
        },
        {
          "indexed": true,
          "internalType": "address",
          "name": "approved",
          "type": "address"
        },
        {
          "indexed": true,
          "internalType": "uint256",
          "name": "tokenId",
          "type": "uint256"
        }
      ],
      "name": "Approval",
      "type": "event"
    },
    {
      "anonymous": false,
      "inputs": [
        {
          "indexed": true,
          "internalType": "address",
          "name": "owner",
          "type": "address"
        },
        {
          "indexed": true,
          "internalType": "address",
          "name": "operator",
          "type": "address"
        },
        {
          "indexed": false,
          "internalType": "bool",
          "name": "approved",
          "type": "bool"
        }
      ],
      "name": "ApprovalForAll",
      "type": "event"
    },
    {
      "anonymous": false,
      "inputs": [
        {
          "indexed": true,
          "internalType": "address",
          "name": "from",
          "type": "address"
        },
        {
          "indexed": true,
          "internalType": "address",
          "name": "to",
          "type": "address"
        },
        {
          "indexed": true,
          "internalType": "uint256",
          "name": "tokenId",
          "type": "uint256"
        }
      ],
      "name": "Transfer",
      "type": "event"
    },
    {
      "inputs": [
        {
          "internalType": "address",
          "name": "to",
          "type": "address"
        },
        {
          "internalType": "uint256",
          "name": "tokenId",
          "type": "uint256"
        }
      ],
      "name": "approve",
      "outputs": [],
      "stateMutability": "nonpayable",
      "type": "function"
    },
    {
      "inputs": [
        {
          "internalType": "address",
          "name": "owner",
          "type": "address"
        }
      ],
      "name": "balanceOf",
      "outputs": [
        {
          "internalType": "uint256",
          "name": "",
          "type": "uint256"
        }
      ],
      "stateMutability": "view",
      "type": "function"
    },
    {
      "inputs": [
        {
          "internalType": "string",
          "name": "",
          "type": "string"
        }
      ],
      "name": "domains",
      "outputs": [
        {
          "internalType": "address",
          "name": "",
          "type": "address"
        }
      ],
      "stateMutability": "view",
      "type": "function"
    },
    {
      "inputs": [
        {
          "internalType": "string",
          "name": "name",
          "type": "string"
        }
      ],
      "name": "getAddress",
      "outputs": [
        {
          "internalType": "address",
          "name": "",
          "type": "address"
        }
      ],
      "stateMutability": "view",
      "type": "function"
    },
    {
      "inputs": [
        {
          "internalType": "uint256",
          "name": "tokenId",
          "type": "uint256"
        }
      ],
      "name": "getApproved",
      "outputs": [
        {
          "internalType": "address",
          "name": "",
          "type": "address"
        }
      ],
      "stateMutability": "view",
      "type": "function"
    },
    {
      "inputs": [
        {
          "internalType": "string",
          "name": "name",
          "type": "string"
        }
      ],
      "name": "getRecord",
      "outputs": [
        {
          "internalType": "string",
          "name": "",
          "type": "string"
        }
      ],
      "stateMutability": "view",
      "type": "function"
    },
    {
      "inputs": [
        {
          "internalType": "address",
          "name": "owner",
          "type": "address"
        },
        {
          "internalType": "address",
          "name": "operator",
          "type": "address"
        }
      ],
      "name": "isApprovedForAll",
      "outputs": [
        {
          "internalType": "bool",
          "name": "",
          "type": "bool"
        }
      ],
      "stateMutability": "view",
      "type": "function"
    },
    {
      "inputs": [],
      "name": "isOwner",
      "outputs": [
        {
          "internalType": "bool",
          "name": "",
          "type": "bool"
        }
      ],
      "stateMutability": "view",
      "type": "function"
    },
    {
      "inputs": [],
      "name": "name",
      "outputs": [
        {
          "internalType": "string",
          "name": "",
          "type": "string"
        }
      ],
      "stateMutability": "view",
      "type": "function"
    },
    {
      "inputs": [],
      "name": "owner",
      "outputs": [
        {
          "internalType": "address payable",
          "name": "",
          "type": "address"
        }
      ],
      "stateMutability": "view",
      "type": "function"
    },
    {
      "inputs": [
        {
          "internalType": "uint256",
          "name": "tokenId",
          "type": "uint256"
        }
      ],
      "name": "ownerOf",
      "outputs": [
        {
          "internalType": "address",
          "name": "",
          "type": "address"
        }
      ],
      "stateMutability": "view",
      "type": "function"
    },
    {
      "inputs": [
        {
          "internalType": "string",
          "name": "name",
          "type": "string"
        }
      ],
      "name": "price",
      "outputs": [
        {
          "internalType": "uint256",
          "name": "",
          "type": "uint256"
        }
      ],
      "stateMutability": "pure",
      "type": "function"
    },
    {
      "inputs": [
        {
          "internalType": "string",
          "name": "",
          "type": "string"
        }
      ],
      "name": "records",
      "outputs": [
        {
          "internalType": "string",
          "name": "",
          "type": "string"
        }
      ],
      "stateMutability": "view",
      "type": "function"
    },
    {
      "inputs": [
        {
          "internalType": "string",
          "name": "name",
          "type": "string"
        }
      ],
      "name": "register",
      "outputs": [],
      "stateMutability": "payable",
      "type": "function"
    },
    {
      "inputs": [
        {
          "internalType": "address",
          "name": "from",
          "type": "address"
        },
        {
          "internalType": "address",
          "name": "to",
          "type": "address"
        },
        {
          "internalType": "uint256",
          "name": "tokenId",
          "type": "uint256"
        }
      ],
      "name": "safeTransferFrom",
      "outputs": [],
      "stateMutability": "nonpayable",
      "type": "function"
    },
    {
      "inputs": [
        {
          "internalType": "address",
          "name": "from",
          "type": "address"
        },
        {
          "internalType": "address",
          "name": "to",
          "type": "address"
        },
        {
          "internalType": "uint256",
          "name": "tokenId",
          "type": "uint256"
        },
        {
          "internalType": "bytes",
          "name": "data",
          "type": "bytes"
        }
      ],
      "name": "safeTransferFrom",
      "outputs": [],
      "stateMutability": "nonpayable",
      "type": "function"
    },
    {
      "inputs": [
        {
          "internalType": "address",
          "name": "operator",
          "type": "address"
        },
        {
          "internalType": "bool",
          "name": "approved",
          "type": "bool"
        }
      ],
      "name": "setApprovalForAll",
      "outputs": [],
      "stateMutability": "nonpayable",
      "type": "function"
    },
    {
      "inputs": [
        {
          "internalType": "string",
          "name": "name",
          "type": "string"
        },
        {
          "internalType": "string",
          "name": "record",
          "type": "string"
        }
      ],
      "name": "setRecord",
      "outputs": [],
      "stateMutability": "nonpayable",
      "type": "function"
    },
    {
      "inputs": [
        {
          "internalType": "bytes4",
          "name": "interfaceId",
          "type": "bytes4"
        }
      ],
      "name": "supportsInterface",
      "outputs": [
        {
          "internalType": "bool",
          "name": "",
          "type": "bool"
        }
      ],
      "stateMutability": "view",
      "type": "function"
    },
    {
      "inputs": [],
      "name": "symbol",
      "outputs": [
        {
          "internalType": "string",
          "name": "",
          "type": "string"
        }
      ],
      "stateMutability": "view",
      "type": "function"
    },
    {
      "inputs": [],
      "name": "tld",
      "outputs": [
        {
          "internalType": "string",
          "name": "",
          "type": "string"
        }
      ],
      "stateMutability": "view",
      "type": "function"
    },
    {
      "inputs": [
        {
          "internalType": "uint256",
          "name": "tokenId",
          "type": "uint256"
        }
      ],
      "name": "tokenURI",
      "outputs": [
        {
          "internalType": "string",
          "name": "",
          "type": "string"
        }
      ],
      "stateMutability": "view",
      "type": "function"
    },
    {
      "inputs": [
        {
          "internalType": "address",
          "name": "from",
          "type": "address"
        },
        {
          "internalType": "address",
          "name": "to",
          "type": "address"
        },
        {
          "internalType": "uint256",
          "name": "tokenId",
          "type": "uint256"
        }
      ],
      "name": "transferFrom",
      "outputs": [],
      "stateMutability": "nonpayable",
      "type": "function"
    },
    {
      "inputs": [],
      "name": "withdraw",
      "outputs": [],
      "stateMutability": "nonpayable",
      "type": "function"
    }
  ],
  "bytecode": "0x6080604052604051806108a0016040528061086b8152602001620048e161086b91396008908051906020019062000038929190620002c8565b506040518060400160405280600d81526020017f3c2f746578743e3c2f7376673e000000000000000000000000000000000000008152506009908051906020019062000086929190620002c8565b506040516200514c3803806200514c8339818101604052810190620000ac9190620003ea565b6040518060400160405280601781526020017f6d617368686172756b69204e616d6520536572766963650000000000000000008152506040518060400160405280600381526020017f4d53480000000000000000000000000000000000000000000000000000000000815250816000908051906020019062000130929190620002c8565b50806001908051906020019062000149929190620002c8565b50505033600b60006101000a81548173ffffffffffffffffffffffffffffffffffffffff021916908373ffffffffffffffffffffffffffffffffffffffff16021790555080600a9080519060200190620001a5929190620002c8565b50620001f26040518060400160405280601881526020017f2573206e616d652073657276696365206465706c6f796564000000000000000081525082620001f960201b6200165d1760201c565b5062000637565b6200029b82826040516024016200021292919062000470565b6040516020818303038152906040527f4b5c4277000000000000000000000000000000000000000000000000000000007bffffffffffffffffffffffffffffffffffffffffffffffffffffffff19166020820180517bffffffffffffffffffffffffffffffffffffffffffffffffffffffff83818316178352505050506200029f60201b60201c565b5050565b60008151905060006a636f6e736f6c652e6c6f679050602083016000808483855afa5050505050565b828054620002d6906200055c565b90600052602060002090601f016020900481019282620002fa576000855562000346565b82601f106200031557805160ff191683800117855562000346565b8280016001018555821562000346579182015b828111156200034557825182559160200191906001019062000328565b5b50905062000355919062000359565b5090565b5b80821115620003745760008160009055506001016200035a565b5090565b60006200038f6200038984620004d4565b620004ab565b905082815260208101848484011115620003a857600080fd5b620003b584828562000526565b509392505050565b600082601f830112620003cf57600080fd5b8151620003e184826020860162000378565b91505092915050565b600060208284031215620003fd57600080fd5b600082015167ffffffffffffffff8111156200041857600080fd5b6200042684828501620003bd565b91505092915050565b60006200043c826200050a565b62000448818562000515565b93506200045a81856020860162000526565b620004658162000626565b840191505092915050565b600060408201905081810360008301526200048c81856200042f565b90508181036020830152620004a281846200042f565b90509392505050565b6000620004b7620004ca565b9050620004c5828262000592565b919050565b6000604051905090565b600067ffffffffffffffff821115620004f257620004f1620005f7565b5b620004fd8262000626565b9050602081019050919050565b600081519050919050565b600082825260208201905092915050565b60005b838110156200054657808201518184015260208101905062000529565b8381111562000556576000848401525b50505050565b600060028204905060018216806200057557607f821691505b602082108114156200058c576200058b620005c8565b5b50919050565b6200059d8262000626565b810181811067ffffffffffffffff82111715620005bf57620005be620005f7565b5b80604052505050565b7f4e487b7100000000000000000000000000000000000000000000000000000000600052602260045260246000fd5b7f4e487b7100000000000000000000000000000000000000000000000000000000600052604160045260246000fd5b6000601f19601f8301169050919050565b61429a80620006476000396000f3fe60806040526004361061014b5760003560e01c806370a08231116100b6578063bf40fac11161006f578063bf40fac1146104b6578063c1880a98146104f3578063c87b56dd1461051c578063e985e9c514610559578063f2c298be14610596578063fe2c6198146105b25761014b565b806370a08231146103a65780638da5cb5b146103e35780638f32d59b1461040e57806395d89b4114610439578063a22cb46514610464578063b88d4fde1461048d5761014b565b8063264492351161010857806326449235146102845780632d551432146102c15780633ccfd60b146102ec57806342842e0e14610303578063541e771d1461032c5780636352211e146103695761014b565b806301ffc9a71461015057806306fdde031461018d578063081812fc146101b8578063095ea7b3146101f557806311dd88451461021e57806323b872dd1461025b575b600080fd5b34801561015c57600080fd5b5061017760048036038101906101729190612dcb565b6105ef565b6040516101849190613558565b60405180910390f35b34801561019957600080fd5b506101a26106d1565b6040516101af9190613573565b60405180910390f35b3480156101c457600080fd5b506101df60048036038101906101da9190612f18565b610763565b6040516101ec91906134d6565b60405180910390f35b34801561020157600080fd5b5061021c60048036038101906102179190612d8f565b6107a9565b005b34801561022a57600080fd5b5061024560048036038101906102409190612e1d565b6108c1565b6040516102529190613573565b60405180910390f35b34801561026757600080fd5b50610282600480360381019061027d9190612c89565b610974565b005b34801561029057600080fd5b506102ab60048036038101906102a69190612ed7565b6109d4565b6040516102b891906134d6565b60405180910390f35b3480156102cd57600080fd5b506102d6610a1d565b6040516102e39190613573565b60405180910390f35b3480156102f857600080fd5b50610301610aab565b005b34801561030f57600080fd5b5061032a60048036038101906103259190612c89565b610b71565b005b34801561033857600080fd5b50610353600480360381019061034e9190612ed7565b610b91565b6040516103609190613573565b60405180910390f35b34801561037557600080fd5b50610390600480360381019061038b9190612f18565b610c47565b60405161039d91906134d6565b60405180910390f35b3480156103b257600080fd5b506103cd60048036038101906103c89190612c24565b610cf9565b6040516103da91906137e6565b60405180910390f35b3480156103ef57600080fd5b506103f8610db1565b60405161040591906134f1565b60405180910390f35b34801561041a57600080fd5b50610423610dd7565b6040516104309190613558565b60405180910390f35b34801561044557600080fd5b5061044e610e2f565b60405161045b9190613573565b60405180910390f35b34801561047057600080fd5b5061048b60048036038101906104869190612d53565b610ec1565b005b34801561049957600080fd5b506104b460048036038101906104af9190612cd8565b610ed7565b005b3480156104c257600080fd5b506104dd60048036038101906104d89190612e1d565b610f39565b6040516104ea91906134d6565b60405180910390f35b3480156104ff57600080fd5b5061051a60048036038101906105159190612e62565b610f84565b005b34801561052857600080fd5b50610543600480360381019061053e9190612f18565b611032565b6040516105509190613573565b60405180910390f35b34801561056557600080fd5b50610580600480360381019061057b9190612c4d565b611145565b60405161058d9190613558565b60405180910390f35b6105b060048036038101906105ab9190612e1d565b6111d9565b005b3480156105be57600080fd5b506105d960048036038101906105d49190612e1d565b6115ba565b6040516105e691906137e6565b60405180910390f35b60007f80ac58cd000000000000000000000000000000000000000000000000000000007bffffffffffffffffffffffffffffffffffffffffffffffffffffffff1916827bffffffffffffffffffffffffffffffffffffffffffffffffffffffff191614806106ba57507f5b5e139f000000000000000000000000000000000000000000000000000000007bffffffffffffffffffffffffffffffffffffffffffffffffffffffff1916827bffffffffffffffffffffffffffffffffffffffffffffffffffffffff1916145b806106ca57506106c9826116f9565b5b9050919050565b6060600080546106e090613ac8565b80601f016020809104026020016040519081016040528092919081815260200182805461070c90613ac8565b80156107595780601f1061072e57610100808354040283529160200191610759565b820191906000526020600020905b81548152906001019060200180831161073c57829003601f168201915b5050505050905090565b600061076e82611763565b6004600083815260200190815260200160002060009054906101000a900473ffffffffffffffffffffffffffffffffffffffff169050919050565b60006107b482610c47565b90508073ffffffffffffffffffffffffffffffffffffffff168373ffffffffffffffffffffffffffffffffffffffff161415610825576040517f08c379a000000000000000000000000000000000000000000000000000000000815260040161081c906137a6565b60405180910390fd5b8073ffffffffffffffffffffffffffffffffffffffff166108446117ae565b73ffffffffffffffffffffffffffffffffffffffff16148061087357506108728161086d6117ae565b611145565b5b6108b2576040517f08c379a00000000000000000000000000000000000000000000000000000000081526004016108a990613726565b60405180910390fd5b6108bc83836117b6565b505050565b6060600d83836040516108d59291906133a3565b908152602001604051809103902080546108ee90613ac8565b80601f016020809104026020016040519081016040528092919081815260200182805461091a90613ac8565b80156109675780601f1061093c57610100808354040283529160200191610967565b820191906000526020600020905b81548152906001019060200180831161094a57829003601f168201915b5050505050905092915050565b61098561097f6117ae565b8261186f565b6109c4576040517f08c379a00000000000000000000000000000000000000000000000000000000081526004016109bb906137c6565b60405180910390fd5b6109cf838383611904565b505050565b600c818051602081018201805184825260208301602085012081835280955050505050506000915054906101000a900473ffffffffffffffffffffffffffffffffffffffff1681565b600a8054610a2a90613ac8565b80601f0160208091040260200160405190810160405280929190818152602001828054610a5690613ac8565b8015610aa35780601f10610a7857610100808354040283529160200191610aa3565b820191906000526020600020905b815481529060010190602001808311610a8657829003601f168201915b505050505081565b610ab3610dd7565b610abc57600080fd5b600047905060003373ffffffffffffffffffffffffffffffffffffffff1682604051610ae7906134c1565b60006040518083038185875af1925050503d8060008114610b24576040519150601f19603f3d011682016040523d82523d6000602084013e610b29565b606091505b5050905080610b6d576040517f08c379a0000000000000000000000000000000000000000000000000000000008152600401610b64906136c6565b60405180910390fd5b5050565b610b8c83838360405180602001604052806000815250610ed7565b505050565b600d818051602081018201805184825260208301602085012081835280955050505050506000915090508054610bc690613ac8565b80601f0160208091040260200160405190810160405280929190818152602001828054610bf290613ac8565b8015610c3f5780601f10610c1457610100808354040283529160200191610c3f565b820191906000526020600020905b815481529060010190602001808311610c2257829003601f168201915b505050505081565b6000806002600084815260200190815260200160002060009054906101000a900473ffffffffffffffffffffffffffffffffffffffff169050600073ffffffffffffffffffffffffffffffffffffffff168173ffffffffffffffffffffffffffffffffffffffff161415610cf0576040517f08c379a0000000000000000000000000000000000000000000000000000000008152600401610ce790613786565b60405180910390fd5b80915050919050565b60008073ffffffffffffffffffffffffffffffffffffffff168273ffffffffffffffffffffffffffffffffffffffff161415610d6a576040517f08c379a0000000000000000000000000000000000000000000000000000000008152600401610d61906136e6565b60405180910390fd5b600360008373ffffffffffffffffffffffffffffffffffffffff1673ffffffffffffffffffffffffffffffffffffffff168152602001908152602001600020549050919050565b600b60009054906101000a900473ffffffffffffffffffffffffffffffffffffffff1681565b6000600b60009054906101000a900473ffffffffffffffffffffffffffffffffffffffff1673ffffffffffffffffffffffffffffffffffffffff163373ffffffffffffffffffffffffffffffffffffffff1614905090565b606060018054610e3e90613ac8565b80601f0160208091040260200160405190810160405280929190818152602001828054610e6a90613ac8565b8015610eb75780601f10610e8c57610100808354040283529160200191610eb7565b820191906000526020600020905b815481529060010190602001808311610e9a57829003601f168201915b5050505050905090565b610ed3610ecc6117ae565b8383611b6b565b5050565b610ee8610ee26117ae565b8361186f565b610f27576040517f08c379a0000000000000000000000000000000000000000000000000000000008152600401610f1e906137c6565b60405180910390fd5b610f3384848484611cd8565b50505050565b6000600c8383604051610f4d9291906133a3565b908152602001604051809103902060009054906101000a900473ffffffffffffffffffffffffffffffffffffffff16905092915050565b3373ffffffffffffffffffffffffffffffffffffffff16600c8585604051610fad9291906133a3565b908152602001604051809103902060009054906101000a900473ffffffffffffffffffffffffffffffffffffffff1673ffffffffffffffffffffffffffffffffffffffff1614610ffc57600080fd5b8181600d86866040516110109291906133a3565b9081526020016040518091039020919061102b929190612978565b5050505050565b606061103d82611763565b600060066000848152602001908152602001600020805461105d90613ac8565b80601f016020809104026020016040519081016040528092919081815260200182805461108990613ac8565b80156110d65780601f106110ab576101008083540402835291602001916110d6565b820191906000526020600020905b8154815290600101906020018083116110b957829003601f168201915b5050505050905060006110e7611d34565b90506000815114156110fd578192505050611140565b60008251111561113257808260405160200161111a9291906133ed565b60405160208183030381529060405292505050611140565b61113b84611d4b565b925050505b919050565b6000600560008473ffffffffffffffffffffffffffffffffffffffff1673ffffffffffffffffffffffffffffffffffffffff16815260200190815260200160002060008373ffffffffffffffffffffffffffffffffffffffff1673ffffffffffffffffffffffffffffffffffffffff16815260200190815260200160002060009054906101000a900460ff16905092915050565b600073ffffffffffffffffffffffffffffffffffffffff16600c83836040516112039291906133a3565b908152602001604051809103902060009054906101000a900473ffffffffffffffffffffffffffffffffffffffff1673ffffffffffffffffffffffffffffffffffffffff161461125257600080fd5b600061125e83836115ba565b9050803410156112a3576040517f08c379a000000000000000000000000000000000000000000000000000000000815260040161129a90613766565b60405180910390fd5b60008383600a6040516020016112bb939291906133bc565b6040516020818303038152906040529050600060088260096040516020016112e593929190613411565b604051602081830303815290604052905060006113026007611db3565b9050600061135387878080601f016020809104026020016040519081016040528093929190818152602001838380828437600081840152601f19601f82011690508083019250505050505050611dc1565b9050600061136082611f9c565b90506114546040518060600160405280603181526020016141bb6031913989898080601f016020809104026020016040519081016040528093929190818152602001838380828437600081840152601f19601f82011690508083019250505050505050600a80546113d090613ac8565b80601f01602080910402602001604051908101604052809291908181526020018280546113fc90613ac8565b80156114495780601f1061141e57610100808354040283529160200191611449565b820191906000526020600020905b81548152906001019060200180831161142c57829003601f168201915b505050505086612149565b600061148a86611463876121eb565b8460405160200161147693929190613442565b6040516020818303038152906040526121eb565b905060008160405160200161149f919061349f565b60405160208183030381529060405290506114d1604051806060016040528060398152602001614182603991396123a9565b6115106040518060400160405280600e81526020017f46696e616c20746f6b656e5552490000000000000000000000000000000000008152508261165d565b6115316040518060600160405280603981526020016141ec603991396123a9565b61153b3386612442565b6115458582612460565b33600c8b8b6040516115589291906133a3565b908152602001604051809103902060006101000a81548173ffffffffffffffffffffffffffffffffffffffff021916908373ffffffffffffffffffffffffffffffffffffffff1602179055506115ae60076124d4565b50505050505050505050565b60008061160a84848080601f016020809104026020016040519081016040528093929190818152602001838380828437600081840152601f19601f82011690508083019250505050505050611dc1565b90506000811161161957600080fd5b6003811415611632576611c37937e08000915050611657565b600481141561164b57660aa87bee538000915050611657565b66038d7ea4c680009150505b92915050565b6116f58282604051602401611673929190613595565b6040516020818303038152906040527f4b5c4277000000000000000000000000000000000000000000000000000000007bffffffffffffffffffffffffffffffffffffffffffffffffffffffff19166020820180517bffffffffffffffffffffffffffffffffffffffffffffffffffffffff83818316178352505050506124ea565b5050565b60007f01ffc9a7000000000000000000000000000000000000000000000000000000007bffffffffffffffffffffffffffffffffffffffffffffffffffffffff1916827bffffffffffffffffffffffffffffffffffffffffffffffffffffffff1916149050919050565b61176c81612513565b6117ab576040517f08c379a00000000000000000000000000000000000000000000000000000000081526004016117a290613786565b60405180910390fd5b50565b600033905090565b816004600083815260200190815260200160002060006101000a81548173ffffffffffffffffffffffffffffffffffffffff021916908373ffffffffffffffffffffffffffffffffffffffff160217905550808273ffffffffffffffffffffffffffffffffffffffff1661182983610c47565b73ffffffffffffffffffffffffffffffffffffffff167f8c5be1e5ebec7d5bd14f71427d1e84f3dd0314c0f7b2291e5b200ac8c7c3b92560405160405180910390a45050565b60008061187b83610c47565b90508073ffffffffffffffffffffffffffffffffffffffff168473ffffffffffffffffffffffffffffffffffffffff1614806118bd57506118bc8185611145565b5b806118fb57508373ffffffffffffffffffffffffffffffffffffffff166118e384610763565b73ffffffffffffffffffffffffffffffffffffffff16145b91505092915050565b8273ffffffffffffffffffffffffffffffffffffffff1661192482610c47565b73ffffffffffffffffffffffffffffffffffffffff161461197a576040517f08c379a000000000000000000000000000000000000000000000000000000000815260040161197190613646565b60405180910390fd5b600073ffffffffffffffffffffffffffffffffffffffff168273ffffffffffffffffffffffffffffffffffffffff1614156119ea576040517f08c379a00000000000000000000000000000000000000000000000000000000081526004016119e190613686565b60405180910390fd5b6119f583838361257f565b611a006000826117b6565b6001600360008573ffffffffffffffffffffffffffffffffffffffff1673ffffffffffffffffffffffffffffffffffffffff1681526020019081526020016000206000828254611a5091906139cc565b925050819055506001600360008473ffffffffffffffffffffffffffffffffffffffff1673ffffffffffffffffffffffffffffffffffffffff1681526020019081526020016000206000828254611aa791906138eb565b92505081905550816002600083815260200190815260200160002060006101000a81548173ffffffffffffffffffffffffffffffffffffffff021916908373ffffffffffffffffffffffffffffffffffffffff160217905550808273ffffffffffffffffffffffffffffffffffffffff168473ffffffffffffffffffffffffffffffffffffffff167fddf252ad1be2c89b69c2b068fc378daa952ba7f163c4a11628f55a4df523b3ef60405160405180910390a4611b66838383612584565b505050565b8173ffffffffffffffffffffffffffffffffffffffff168373ffffffffffffffffffffffffffffffffffffffff161415611bda576040517f08c379a0000000000000000000000000000000000000000000000000000000008152600401611bd1906136a6565b60405180910390fd5b80600560008573ffffffffffffffffffffffffffffffffffffffff1673ffffffffffffffffffffffffffffffffffffffff16815260200190815260200160002060008473ffffffffffffffffffffffffffffffffffffffff1673ffffffffffffffffffffffffffffffffffffffff16815260200190815260200160002060006101000a81548160ff0219169083151502179055508173ffffffffffffffffffffffffffffffffffffffff168373ffffffffffffffffffffffffffffffffffffffff167f17307eab39ab6107e8899845ad3d59bd9653f200f220920489ca2b5937696c3183604051611ccb9190613558565b60405180910390a3505050565b611ce3848484611904565b611cef84848484612589565b611d2e576040517f08c379a0000000000000000000000000000000000000000000000000000000008152600401611d2590613626565b60405180910390fd5b50505050565b606060405180602001604052806000815250905090565b6060611d5682611763565b6000611d60611d34565b90506000815111611d805760405180602001604052806000815250611dab565b80611d8a84611f9c565b604051602001611d9b9291906133ed565b6040516020818303038152906040525b915050919050565b600081600001549050919050565b60008060008084519050600092505b80821015611f91576000858381518110611e13577f4e487b7100000000000000000000000000000000000000000000000000000000600052603260045260246000fd5b602001015160f81c60f81b9050608060f81b817effffffffffffffffffffffffffffffffffffffffffffffffffffffffffffff19161015611e6257600183611e5b91906138eb565b9250611f7d565b60e060f81b817effffffffffffffffffffffffffffffffffffffffffffffffffffffffffffff19161015611ea457600283611e9d91906138eb565b9250611f7c565b60f060f81b817effffffffffffffffffffffffffffffffffffffffffffffffffffffffffffff19161015611ee657600383611edf91906138eb565b9250611f7b565b60f8801b817effffffffffffffffffffffffffffffffffffffffffffffffffffffffffffff19161015611f2757600483611f2091906138eb565b9250611f7a565b60fc60f81b817effffffffffffffffffffffffffffffffffffffffffffffffffffffffffffff19161015611f6957600583611f6291906138eb565b9250611f79565b600683611f7691906138eb565b92505b5b5b5b5b508280611f8990613b2b565b935050611dd0565b829350505050919050565b60606000821415611fe4576040518060400160405280600181526020017f30000000000000000000000000000000000000000000000000000000000000008152509050612144565b600082905060005b60008214612016578080611fff90613b2b565b915050600a8261200f9190613941565b9150611fec565b60008167ffffffffffffffff811115612058577f4e487b7100000000000000000000000000000000000000000000000000000000600052604160045260246000fd5b6040519080825280601f01601f19166020018201604052801561208a5781602001600182028036833780820191505090505b5090505b6000851461213d576001826120a391906139cc565b9150600a856120b29190613b74565b60306120be91906138eb565b60f81b8183815181106120fa577f4e487b7100000000000000000000000000000000000000000000000000000000600052603260045260246000fd5b60200101907effffffffffffffffffffffffffffffffffffffffffffffffffffffffffffff1916908160001a905350600a856121369190613941565b945061208e565b8093505050505b919050565b6121e58484848460405160240161216394939291906135cc565b6040516020818303038152906040527f9fd009f5000000000000000000000000000000000000000000000000000000007bffffffffffffffffffffffffffffffffffffffffffffffffffffffff19166020820180517bffffffffffffffffffffffffffffffffffffffffffffffffffffffff83818316178352505050506124ea565b50505050565b6060600082519050600081141561221457604051806020016040528060008152509150506123a4565b6000600360028361222591906138eb565b61222f9190613941565b600461223b9190613972565b9050600060208261224c91906138eb565b67ffffffffffffffff81111561228b577f4e487b7100000000000000000000000000000000000000000000000000000000600052604160045260246000fd5b6040519080825280601f01601f1916602001820160405280156122bd5781602001600182028036833780820191505090505b5090506000604051806060016040528060408152602001614225604091399050600181016020830160005b868110156123615760038101905062ffffff818a015116603f8160121c168401518060081b905060ff603f83600c1c1686015116810190508060081b905060ff603f8360061c1686015116810190508060081b905060ff603f831686015116810190508060e01b905080845260048401935050506122e8565b50600386066001811461237b576002811461238b57612396565b613d3d60f01b6002830352612396565b603d60f81b60018303525b508484525050819450505050505b919050565b61243f816040516024016123bd9190613573565b6040516020818303038152906040527f41304fac000000000000000000000000000000000000000000000000000000007bffffffffffffffffffffffffffffffffffffffffffffffffffffffff19166020820180517bffffffffffffffffffffffffffffffffffffffffffffffffffffffff83818316178352505050506124ea565b50565b61245c828260405180602001604052806000815250612720565b5050565b61246982612513565b6124a8576040517f08c379a000000000000000000000000000000000000000000000000000000000815260040161249f90613706565b60405180910390fd5b806006600084815260200190815260200160002090805190602001906124cf9291906129fe565b505050565b6001816000016000828254019250508190555050565b60008151905060006a636f6e736f6c652e6c6f679050602083016000808483855afa5050505050565b60008073ffffffffffffffffffffffffffffffffffffffff166002600084815260200190815260200160002060009054906101000a900473ffffffffffffffffffffffffffffffffffffffff1673ffffffffffffffffffffffffffffffffffffffff1614159050919050565b505050565b505050565b60006125aa8473ffffffffffffffffffffffffffffffffffffffff1661277b565b15612713578373ffffffffffffffffffffffffffffffffffffffff1663150b7a026125d36117ae565b8786866040518563ffffffff1660e01b81526004016125f5949392919061350c565b602060405180830381600087803b15801561260f57600080fd5b505af192505050801561264057506040513d601f19601f8201168201806040525081019061263d9190612df4565b60015b6126c3573d8060008114612670576040519150601f19603f3d011682016040523d82523d6000602084013e612675565b606091505b506000815114156126bb576040517f08c379a00000000000000000000000000000000000000000000000000000000081526004016126b290613626565b60405180910390fd5b805181602001fd5b63150b7a0260e01b7bffffffffffffffffffffffffffffffffffffffffffffffffffffffff1916817bffffffffffffffffffffffffffffffffffffffffffffffffffffffff191614915050612718565b600190505b949350505050565b61272a838361279e565b6127376000848484612589565b612776576040517f08c379a000000000000000000000000000000000000000000000000000000000815260040161276d90613626565b60405180910390fd5b505050565b6000808273ffffffffffffffffffffffffffffffffffffffff163b119050919050565b600073ffffffffffffffffffffffffffffffffffffffff168273ffffffffffffffffffffffffffffffffffffffff16141561280e576040517f08c379a000000000000000000000000000000000000000000000000000000000815260040161280590613746565b60405180910390fd5b61281781612513565b15612857576040517f08c379a000000000000000000000000000000000000000000000000000000000815260040161284e90613666565b60405180910390fd5b6128636000838361257f565b6001600360008473ffffffffffffffffffffffffffffffffffffffff1673ffffffffffffffffffffffffffffffffffffffff16815260200190815260200160002060008282546128b391906138eb565b92505081905550816002600083815260200190815260200160002060006101000a81548173ffffffffffffffffffffffffffffffffffffffff021916908373ffffffffffffffffffffffffffffffffffffffff160217905550808273ffffffffffffffffffffffffffffffffffffffff16600073ffffffffffffffffffffffffffffffffffffffff167fddf252ad1be2c89b69c2b068fc378daa952ba7f163c4a11628f55a4df523b3ef60405160405180910390a461297460008383612584565b5050565b82805461298490613ac8565b90600052602060002090601f0160209004810192826129a657600085556129ed565b82601f106129bf57803560ff19168380011785556129ed565b828001600101855582156129ed579182015b828111156129ec5782358255916020019190600101906129d1565b5b5090506129fa9190612a84565b5090565b828054612a0a90613ac8565b90600052602060002090601f016020900481019282612a2c5760008555612a73565b82601f10612a4557805160ff1916838001178555612a73565b82800160010185558215612a73579182015b82811115612a72578251825591602001919060010190612a57565b5b509050612a809190612a84565b5090565b5b80821115612a9d576000816000905550600101612a85565b5090565b6000612ab4612aaf84613826565b613801565b905082815260208101848484011115612acc57600080fd5b612ad7848285613a86565b509392505050565b6000612af2612aed84613857565b613801565b905082815260208101848484011115612b0a57600080fd5b612b15848285613a86565b509392505050565b600081359050612b2c81614125565b92915050565b600081359050612b418161413c565b92915050565b600081359050612b5681614153565b92915050565b600081519050612b6b81614153565b92915050565b600082601f830112612b8257600080fd5b8135612b92848260208601612aa1565b91505092915050565b60008083601f840112612bad57600080fd5b8235905067ffffffffffffffff811115612bc657600080fd5b602083019150836001820283011115612bde57600080fd5b9250929050565b600082601f830112612bf657600080fd5b8135612c06848260208601612adf565b91505092915050565b600081359050612c1e8161416a565b92915050565b600060208284031215612c3657600080fd5b6000612c4484828501612b1d565b91505092915050565b60008060408385031215612c6057600080fd5b6000612c6e85828601612b1d565b9250506020612c7f85828601612b1d565b9150509250929050565b600080600060608486031215612c9e57600080fd5b6000612cac86828701612b1d565b9350506020612cbd86828701612b1d565b9250506040612cce86828701612c0f565b9150509250925092565b60008060008060808587031215612cee57600080fd5b6000612cfc87828801612b1d565b9450506020612d0d87828801612b1d565b9350506040612d1e87828801612c0f565b925050606085013567ffffffffffffffff811115612d3b57600080fd5b612d4787828801612b71565b91505092959194509250565b60008060408385031215612d6657600080fd5b6000612d7485828601612b1d565b9250506020612d8585828601612b32565b9150509250929050565b60008060408385031215612da257600080fd5b6000612db085828601612b1d565b9250506020612dc185828601612c0f565b9150509250929050565b600060208284031215612ddd57600080fd5b6000612deb84828501612b47565b91505092915050565b600060208284031215612e0657600080fd5b6000612e1484828501612b5c565b91505092915050565b60008060208385031215612e3057600080fd5b600083013567ffffffffffffffff811115612e4a57600080fd5b612e5685828601612b9b565b92509250509250929050565b60008060008060408587031215612e7857600080fd5b600085013567ffffffffffffffff811115612e9257600080fd5b612e9e87828801612b9b565b9450945050602085013567ffffffffffffffff811115612ebd57600080fd5b612ec987828801612b9b565b925092505092959194509250565b600060208284031215612ee957600080fd5b600082013567ffffffffffffffff811115612f0357600080fd5b612f0f84828501612be5565b91505092915050565b600060208284031215612f2a57600080fd5b6000612f3884828501612c0f565b91505092915050565b612f4a81613a12565b82525050565b612f5981613a00565b82525050565b612f6881613a24565b82525050565b6000612f798261389d565b612f8381856138b3565b9350612f93818560208601613a95565b612f9c81613c61565b840191505092915050565b6000612fb383856138e0565b9350612fc0838584613a86565b82840190509392505050565b6000612fd7826138a8565b612fe181856138cf565b9350612ff1818560208601613a95565b612ffa81613c61565b840191505092915050565b6000613010826138a8565b61301a81856138e0565b935061302a818560208601613a95565b80840191505092915050565b6000815461304381613ac8565b61304d81866138e0565b945060018216600081146130685760018114613079576130ac565b60ff198316865281860193506130ac565b61308285613888565b60005b838110156130a457815481890152600182019150602081019050613085565b838801955050505b50505092915050565b60006130c26032836138cf565b91506130cd82613c72565b604082019050919050565b60006130e56025836138cf565b91506130f082613cc1565b604082019050919050565b6000613108601c836138cf565b915061311382613d10565b602082019050919050565b600061312b605c836138e0565b915061313682613d39565b605c82019050919050565b600061314e6024836138cf565b915061315982613dae565b604082019050919050565b60006131716019836138cf565b915061317c82613dfd565b602082019050919050565b60006131946018836138cf565b915061319f82613e26565b602082019050919050565b60006131b76029836138cf565b91506131c282613e4f565b604082019050919050565b60006131da6001836138e0565b91506131e582613e9e565b600182019050919050565b60006131fd602e836138cf565b915061320882613ec7565b604082019050919050565b60006132206002836138e0565b915061322b82613f16565b600282019050919050565b6000613243603e836138cf565b915061324e82613f3f565b604082019050919050565b60006132666020836138cf565b915061327182613f8e565b602082019050919050565b60006132896015836138cf565b915061329482613fb7565b602082019050919050565b60006132ac600a836138e0565b91506132b782613fe0565b600a82019050919050565b60006132cf6018836138cf565b91506132da82614009565b602082019050919050565b60006132f26021836138cf565b91506132fd82614032565b604082019050919050565b6000613315601d836138e0565b915061332082614081565b601d82019050919050565b6000613338600c836138e0565b9150613343826140aa565b600c82019050919050565b600061335b6000836138c4565b9150613366826140d3565b600082019050919050565b600061337e602e836138cf565b9150613389826140d6565b604082019050919050565b61339d81613a7c565b82525050565b60006133b0828486612fa7565b91508190509392505050565b60006133c9828587612fa7565b91506133d4826131cd565b91506133e08284613036565b9150819050949350505050565b60006133f98285613005565b91506134058284613005565b91508190509392505050565b600061341d8286613036565b91506134298285613005565b91506134358284613036565b9150819050949350505050565b600061344d8261329f565b91506134598286613005565b91506134648261311e565b91506134708285613005565b915061347b8261332b565b91506134878284613005565b915061349282613213565b9150819050949350505050565b60006134aa82613308565b91506134b68284613005565b915081905092915050565b60006134cc8261334e565b9150819050919050565b60006020820190506134eb6000830184612f50565b92915050565b60006020820190506135066000830184612f41565b92915050565b60006080820190506135216000830187612f50565b61352e6020830186612f50565b61353b6040830185613394565b818103606083015261354d8184612f6e565b905095945050505050565b600060208201905061356d6000830184612f5f565b92915050565b6000602082019050818103600083015261358d8184612fcc565b905092915050565b600060408201905081810360008301526135af8185612fcc565b905081810360208301526135c38184612fcc565b90509392505050565b600060808201905081810360008301526135e68187612fcc565b905081810360208301526135fa8186612fcc565b9050818103604083015261360e8185612fcc565b905061361d6060830184613394565b95945050505050565b6000602082019050818103600083015261363f816130b5565b9050919050565b6000602082019050818103600083015261365f816130d8565b9050919050565b6000602082019050818103600083015261367f816130fb565b9050919050565b6000602082019050818103600083015261369f81613141565b9050919050565b600060208201905081810360008301526136bf81613164565b9050919050565b600060208201905081810360008301526136df81613187565b9050919050565b600060208201905081810360008301526136ff816131aa565b9050919050565b6000602082019050818103600083015261371f816131f0565b9050919050565b6000602082019050818103600083015261373f81613236565b9050919050565b6000602082019050818103600083015261375f81613259565b9050919050565b6000602082019050818103600083015261377f8161327c565b9050919050565b6000602082019050818103600083015261379f816132c2565b9050919050565b600060208201905081810360008301526137bf816132e5565b9050919050565b600060208201905081810360008301526137df81613371565b9050919050565b60006020820190506137fb6000830184613394565b92915050565b600061380b61381c565b90506138178282613afa565b919050565b6000604051905090565b600067ffffffffffffffff82111561384157613840613c32565b5b61384a82613c61565b9050602081019050919050565b600067ffffffffffffffff82111561387257613871613c32565b5b61387b82613c61565b9050602081019050919050565b60008190508160005260206000209050919050565b600081519050919050565b600081519050919050565b600082825260208201905092915050565b600081905092915050565b600082825260208201905092915050565b600081905092915050565b60006138f682613a7c565b915061390183613a7c565b9250827fffffffffffffffffffffffffffffffffffffffffffffffffffffffffffffffff0382111561393657613935613ba5565b5b828201905092915050565b600061394c82613a7c565b915061395783613a7c565b92508261396757613966613bd4565b5b828204905092915050565b600061397d82613a7c565b915061398883613a7c565b9250817fffffffffffffffffffffffffffffffffffffffffffffffffffffffffffffffff04831182151516156139c1576139c0613ba5565b5b828202905092915050565b60006139d782613a7c565b91506139e283613a7c565b9250828210156139f5576139f4613ba5565b5b828203905092915050565b6000613a0b82613a5c565b9050919050565b6000613a1d82613a5c565b9050919050565b60008115159050919050565b60007fffffffff0000000000000000000000000000000000000000000000000000000082169050919050565b600073ffffffffffffffffffffffffffffffffffffffff82169050919050565b6000819050919050565b82818337600083830152505050565b60005b83811015613ab3578082015181840152602081019050613a98565b83811115613ac2576000848401525b50505050565b60006002820490506001821680613ae057607f821691505b60208210811415613af457613af3613c03565b5b50919050565b613b0382613c61565b810181811067ffffffffffffffff82111715613b2257613b21613c32565b5b80604052505050565b6000613b3682613a7c565b91507fffffffffffffffffffffffffffffffffffffffffffffffffffffffffffffffff821415613b6957613b68613ba5565b5b600182019050919050565b6000613b7f82613a7c565b9150613b8a83613a7c565b925082613b9a57613b99613bd4565b5b828206905092915050565b7f4e487b7100000000000000000000000000000000000000000000000000000000600052601160045260246000fd5b7f4e487b7100000000000000000000000000000000000000000000000000000000600052601260045260246000fd5b7f4e487b7100000000000000000000000000000000000000000000000000000000600052602260045260246000fd5b7f4e487b7100000000000000000000000000000000000000000000000000000000600052604160045260246000fd5b6000601f19601f8301169050919050565b7f4552433732313a207472616e7366657220746f206e6f6e20455243373231526560008201527f63656976657220696d706c656d656e7465720000000000000000000000000000602082015250565b7f4552433732313a207472616e736665722066726f6d20696e636f72726563742060008201527f6f776e6572000000000000000000000000000000000000000000000000000000602082015250565b7f4552433732313a20746f6b656e20616c7265616479206d696e74656400000000600082015250565b7f222c20226465736372697074696f6e223a20224120646f6d61696e206f6e207460008201527f6865204e696e6a61206e616d652073657276696365222c2022696d616765223a60208201527f2022646174613a696d6167652f7376672b786d6c3b6261736536342c00000000604082015250565b7f4552433732313a207472616e7366657220746f20746865207a65726f2061646460008201527f7265737300000000000000000000000000000000000000000000000000000000602082015250565b7f4552433732313a20617070726f766520746f2063616c6c657200000000000000600082015250565b7f4661696c656420746f207769746864726177204d617469630000000000000000600082015250565b7f4552433732313a2061646472657373207a65726f206973206e6f74206120766160008201527f6c6964206f776e65720000000000000000000000000000000000000000000000602082015250565b7f2e00000000000000000000000000000000000000000000000000000000000000600082015250565b7f45524337323155524953746f726167653a2055524920736574206f66206e6f6e60008201527f6578697374656e7420746f6b656e000000000000000000000000000000000000602082015250565b7f227d000000000000000000000000000000000000000000000000000000000000600082015250565b7f4552433732313a20617070726f76652063616c6c6572206973206e6f7420746f60008201527f6b656e206f776e6572206e6f7220617070726f76656420666f7220616c6c0000602082015250565b7f4552433732313a206d696e7420746f20746865207a65726f2061646472657373600082015250565b7f4e6f7420656e6f756768204d6174696320706169640000000000000000000000600082015250565b7f7b226e616d65223a202200000000000000000000000000000000000000000000600082015250565b7f4552433732313a20696e76616c696420746f6b656e2049440000000000000000600082015250565b7f4552433732313a20617070726f76616c20746f2063757272656e74206f776e6560008201527f7200000000000000000000000000000000000000000000000000000000000000602082015250565b7f646174613a6170706c69636174696f6e2f6a736f6e3b6261736536342c000000600082015250565b7f222c226c656e677468223a220000000000000000000000000000000000000000600082015250565b50565b7f4552433732313a2063616c6c6572206973206e6f7420746f6b656e206f776e6560008201527f72206e6f7220617070726f766564000000000000000000000000000000000000602082015250565b61412e81613a00565b811461413957600080fd5b50565b61414581613a24565b811461415057600080fd5b50565b61415c81613a30565b811461416757600080fd5b50565b61417381613a7c565b811461417e57600080fd5b5056fe0a2d2d2d2d2d2d2d2d2d2d2d2d2d2d2d2d2d2d2d2d2d2d2d2d2d2d2d2d2d2d2d2d2d2d2d2d2d2d2d2d2d2d2d2d2d2d2d2d2d2d2d2d2d2d2d2d5265676973746572696e672025732e2573206f6e2074686520636f6e7472616374207769746820746f6b656e49442025642d2d2d2d2d2d2d2d2d2d2d2d2d2d2d2d2d2d2d2d2d2d2d2d2d2d2d2d2d2d2d2d2d2d2d2d2d2d2d2d2d2d2d2d2d2d2d2d2d2d2d2d2d2d2d2d0a4142434445464748494a4b4c4d4e4f505152535455565758595a6162636465666768696a6b6c6d6e6f707172737475767778797a303132333435363738392b2fa264697066735822122094bbb092d449150171fb7cc4d716adb44efd6b3c97ae50d6f5c65eca86f763c964736f6c634300080400333c73766720786d6c6e733d22687474703a2f2f7777772e77332e6f72672f323030302f737667222077696474683d2232373022206865696768743d22323730222066696c6c3d226e6f6e65223e3c706174682066696c6c3d2275726c282342292220643d224d302030683237307632373048307a222f3e3c646566733e3c66696c7465722069643d22412220636f6c6f722d696e746572706f6c6174696f6e2d66696c746572733d2273524742222066696c746572556e6974733d227573657253706163654f6e55736522206865696768743d22323730222077696474683d22323730223e3c666544726f70536861646f772064783d2230222064793d22312220737464446576696174696f6e3d22322220666c6f6f642d6f7061636974793d222e323235222077696474683d223230302522206865696768743d2232303025222f3e3c2f66696c7465723e3c2f646566733e3c7061746820643d224d37322e3836332034322e393439632d2e3636382d2e3338372d312e3432362d2e35392d322e3139372d2e3539732d312e3532392e3230342d322e3139372e35396c2d31302e30383120362e3033322d362e383520332e3933342d31302e30383120362e303332632d2e3636382e3338372d312e3432362e35392d322e3139372e3539732d312e3532392d2e3230342d322e3139372d2e35396c2d382e3031332d342e37323161342e353220342e35322030203020312d312e3538392d312e363136632d2e3338342d2e3636352d2e3539342d312e3431382d2e3630382d322e313837762d392e3331632d2e3031332d2e3737352e3138352d312e3533382e3537322d322e32303861342e323520342e323520302030203120312e3632352d312e3539356c372e3838342d342e3539632e3636382d2e33383720312e3432362d2e353920322e3139372d2e353973312e3532392e32303420322e3139372e35396c372e38383420342e353961342e353220342e353220302030203120312e35383920312e363136632e3338342e3636352e35393420312e3431382e36303820322e31383776362e3033326c362e38352d342e303635762d362e303332632e3031332d2e3737352d2e3138352d312e3533382d2e3537322d322e32303861342e323520342e32352030203020302d312e3632352d312e3539354c34312e3435362032342e3539632d2e3636382d2e3338372d312e3432362d2e35392d322e3139372d2e3539732d312e3532392e3230342d322e3139372e35396c2d31342e38363420382e36353561342e323520342e32352030203020302d312e36323520312e353935632d2e3338372e36372d2e35383520312e3433342d2e35373220322e3230387631372e343431632d2e3031332e3737352e31383520312e3533382e35373220322e32303861342e323520342e323520302030203020312e36323520312e3539356c31342e38363420382e363535632e3636382e33383720312e3432362e353920322e3139372e353973312e3532392d2e32303420322e3139372d2e35396c31302e3038312d352e39303120362e38352d342e3036352031302e3038312d352e393031632e3636382d2e33383720312e3432362d2e353920322e3139372d2e353973312e3532392e32303420322e3139372e35396c372e38383420342e353961342e353220342e353220302030203120312e35383920312e363136632e3338342e3636352e35393420312e3431382e36303820322e31383776392e333131632e3031332e3737352d2e31383520312e3533382d2e35373220322e32303861342e323520342e32352030203020312d312e36323520312e3539356c2d372e38383420342e373231632d2e3636382e3338372d312e3432362e35392d322e3139372e3539732d312e3532392d2e3230342d322e3139372d2e35396c2d372e3838342d342e353961342e353220342e35322030203020312d312e3538392d312e363136632d2e3338352d2e3636352d2e3539342d312e3431382d2e3630382d322e313837762d362e3033326c2d362e383520342e30363576362e303332632d2e3031332e3737352e31383520312e3533382e35373220322e32303861342e323520342e323520302030203020312e36323520312e3539356c31342e38363420382e363535632e3636382e33383720312e3432362e353920322e3139372e353973312e3532392d2e32303420322e3139372d2e35396c31342e3836342d382e363535632e3635372d2e33393420312e3230342d2e393520312e3538392d312e363136732e3539342d312e3431382e3630392d322e3138375635352e353338632e3031332d2e3737352d2e3138352d312e3533382d2e3537322d322e32303861342e323520342e32352030203020302d312e3632352d312e3539356c2d31342e3939332d382e3738367a222066696c6c3d2223666666222f3e3c646566733e3c6c696e6561724772616469656e742069643d2242222078313d2230222079313d2230222078323d22323730222079323d2232373022206772616469656e74556e6974733d227573657253706163654f6e557365223e3c73746f702073746f702d636f6c6f723d2223636235656565222f3e3c73746f70206f66667365743d2231222073746f702d636f6c6f723d2223306364376534222073746f702d6f7061636974793d222e3939222f3e3c2f6c696e6561724772616469656e743e3c2f646566733e3c7465787420783d2233322e352220793d223233312220666f6e742d73697a653d223237222066696c6c3d2223666666222066696c7465723d2275726c282341292220666f6e742d66616d696c793d22506c7573204a616b617274612053616e732c44656a6156752053616e732c4e6f746f20436f6c6f7220456d6f6a692c4170706c6520436f6c6f7220456d6f6a692c73616e732d73657269662220666f6e742d7765696768743d22626f6c64223e",
  "linkReferences": {},
  "deployedLinkReferences": {}
}